:100000000C9434000C9451000C9451000C94510049
:100010000C9451000C9451000C9451000C9451001C
:100020000C9451000C9451000C9451000C9451000C
:100030000C9451000C9451000C9451000C945100FC
:100040000C9451000C94B3000C9451000C9451008A
:100050000C9451000C9451000C9451000C945100DC
:100060000C9451000C94510011241FBECFEFD8E026
:10007000DEBFCDBF11E0A0E0B1E0EAEDF1E002C0EB
:1000800005900D92AE33B107D9F721E0AEE3B1E0B0
:1000900001C01D92A434B207E1F70E9453000C94F2
:1000A000EB000C9400000E94A0000E94D700219A4F
:1000B00029980E9469000E948D000E948D002FEFF8
:1000C00083ED90E3215080409040E1F700C00000B4
:1000D000F4CFEF92FF920F931F93CF93DF93C6E17C
:1000E000D1E00F2EFEE3EF2EF1E0FF2EF02D0AC03F
:1000F00089910E94AD00C017D107D1F7E801E01641
:10010000F10621F08E01085F1F4FF2CFDF91CF91F2
:100110001F910F91FF90EF9008950F931F93CF932E
:10012000DF93CEE0D1E006E111E089910E94AD00BD
:10013000C017D107D1F7DF91CF911F910F9108958B
:1001400084B18C6284B98CB5806D8CBD8DB58160B5
:100150008DBD229A219A299808958EBD0DB407FE6F
:10016000FDCF8EB508951F920F920FB60F921124F6
:100170000F900FBE0F901F901895E0ECF0E080817B
:100180008823ECF78091C6000895CF93C82F8A305A
:1001900029F460E070E08DE00E94C500E0ECF0E042
:1001A000808185FFFDCFC093C600CF910895109246
:1001B000C50087E68093C40088E18093C10086E093
:1001C0008093C200EEE3F1E080E091E093838283CC
:0A01D000918380830895F894FFCF17
:1001DA000000000300000000C500BD000000000090
:1001EA00000000028400000500294A5294A5000676
:1001FA000000000001E7000900000601B6F6000A47
:0E020A0000006DB6DB41000D00000000080092
:00000001FF
